:100000000C9451010C9482010C9482010C94820195
:100010000C9482010C9482010C9482010C94820154
:100020000C9482010C9482010C9482010C94820144
:100030000C9482010C9482010C9482010C94820134
:100040000C9482010C94E20A0C9482010C948201BB
:100050000C9482010C9482010C9482010C940E0A7F
:100060000C9482010C94D8090C94AE090C94820172
:100070000C9482010C9482010C9482010C948201F4
:100080000C94B40A0C9482010C9482010C948201A9
:100090000C9482010C9482010C9482010C94100B3C
:1000A0000C9482010C9482010C94860A0C948201B7
:1000B0000C9482010C9482010C9482010C94580AD5
:1000C0000C9482010C9482010C9482010C948201A4
:1000D0000C9482010C9482010C9482010C94820194
:1000E0000C9482010C94AB020C94D6030C94E203A2
:1000F0000C9403040C9486070C94DC020C94F50316
:100100000C94DA030C94EB030C9414030C94DD07A9
:100110000C9410040C947D020C9442040C94B304CF
:100120000C940B040C94B0070C94BA020C9487073F
:100130000C94F3080C94FD030C9473040C94960730
:100140000C9411040C941F070C94CE020C947E02A4
:100150000C947C020C9461030C94340C0C94700984
:100160000C9407040C9415040C94A9070C94D00368
:100170000C94EF030C94E5030C94F9030C94DE0348
:1001800000002100240027002A002D003000330049
:1001900001010000040107010A01000022002500FE
:1001A00028002B002E003100340002010000050160
:1001B00008010B01000020002300260029002C006C
:1001C0002F003200000100000301060109010505AE
:1001D0000505070508080808020202020A0A0808BD
:1001E00004040404010101010101010103030303EB
:1001F00003030303040707070C0C0C0C0C0C0C0C7A
:100200000202020206060606060606060B0B0B0B8A
:100210000B0B0B0B010210202008081020401020AF
:1002200040800201020108040201010204081020BA
:1002300040808040201008040201800402018040B8
:100240002010080402010804020101020408102021
:100250004080010204081020408000000A0B0209BF
:100260000C0D0E0807030401000000000000000050
:10027000000000000000000000000000000000007E
:10028000000000000000121110000000000000003B
:10029000000000000000000000000000000000005E
:1002A000340C11241FBECFEFD1E2DEBFCDBF00E082
:1002B0000CBF12E0A0E0B2E0EAE1F0E200E00BBF28
:1002C00002C007900D92AA3DB107D9F725E0AAED2B
:1002D000B2E001C01D92A136B207E1F711E0C1E51D
:1002E000D1E000E006C021970109802FFE010E94A5
:1002F000FA0FC035D10780E00807A9F70E94030D67
:100300000C940B100C9400008F929F92AF92BF92AE
:10031000FF920F931F93CF93DF93F0905E052FE230
:100320002F1508F44CC02091600508E512E0021B6F
:10033000110927FD1395000F111F000F111F2091A8
:100340005F05C8E8D0E0C21BD10927FDD395CC0FCB
:10035000DD1FCC0FDD1F4E010D2E000CAA08BB08BF
:100360009801012E000C440B550B281939094A0934
:100370005B09DC010E94B50F24EB30E040E050E067
:100380000E948B0F820E931EA41EB51E8C169D0616
:100390002CF0E801801691060CF4E4012297CC0FB2
:1003A000DD1F2FB7F8948F2D90E0FC01EE0FFF1F9B
:1003B000E80FF91FEE5AFB4FD283C1832FBFDF91A5
:1003C000CF911F910F91FF90BF90AF909F908F9012
:1003D000089596E0899FD0011124A151BB4F9096BA
:1003E0007C936E935F9791E091969C939197E091A7
:1003F0005C05F0915D0590915B05992339F030978C
:1004000051F0811108C080910B051994309719F0B3
:100410005C968C91FACF0895CF92DF92EF92FF9283
:100420000F931F9396E0899FF0011124E151FB4F38
:1004300011A2278D30A12130310551F178F0223001
:10044000310509F451C02330310509F452C01F9120
:100450000F91FF90EF90DF90CF9008956623B9F34E
:1004600061E070E00E94E9012FB7F8948091A50344
:100470009091A603A091A703B091A8032FBF8093EA
:10048000470590934805A0934905B0934A05DFCFEF
:100490009FB7F894C090A503D090A603E090A7035F
:1004A000F090A8039FBF0091470510914805209147
:1004B000490530914A05C01AD10AE20AF30A0091AF
:1004C000590510915A0530E020E00C151D052E0548
:1004D0003F0550F462E070E01F910F91FF90EF90A4
:1004E000DF90CF900C94E9016111B1CF63E070E02F
:1004F000F3CF70E060E0F0CF08950895AF92BF921F
:10050000CF92DF92EF92FF920F931F93CF93DF93DF
:100510006C017B018B01040F151FEB015E01AE180E
:10052000BF08C017D10759F06991D601ED91FC9130
:100530000190F081E02DC6011995892B79F7C5014D
:10054000DF91CF911F910F91FF90EF90DF90CF90AF
:10055000BF90AF900895FC01538D448D252F30E05E
:10056000842F90E0821B930B541710F0CF960895C0
:1005700001970895FC01918D828D981761F0A28DED
:10058000AE0FBF2FB11D5D968C91928D9F5F9F73B3
:10059000928F90E008958FEF9FEF0895FC01918D69
:1005A000828D981731F0828DE80FF11D858D90E0D6
:1005B00008958FEF9FEF0895FC01918D228D892F73
:1005C00090E0805C9F4F821B91098F73992708955B
:1005D00089EA93E00E94DC0221E0892B09F420E003
:1005E000822F0895FC01A48DA80FB92FB11DA35A25
:1005F000BF4F2C91848D90E001968F739927848F43
:10060000A689B7892C93A089B1898C918370806465
:100610008C93938D848D981306C00288F389E02D06
:1006200080818F7D80830895EF92FF920F931F93B7
:10063000CF93DF93EC0181E0888F9B8D8C8D981395
:100640001AC0E889F989808185FF15C09FB7F894A1
:10065000EE89FF896083E889F989808183708064ED
:1006600080839FBF81E090E0DF91CF911F910F9138
:10067000FF90EF900895F62E0B8D10E00F5F1F4F47
:100680000F731127E02E8C8D8E110CC00FB607FC56
:10069000FACFE889F989808185FFF5CFCE010E94E4
:1006A000F202F1CFEB8DEC0FFD2FF11DE35AFF4F5E
:1006B000F0829FB7F8940B8FEA89FB898081806272
:1006C000CFCFCF93DF93EC01888D8823B9F0AA892F
:1006D000BB89E889F9898C9185FD03C0808186FDFD
:1006E0000DC00FB607FCF7CF8C9185FFF2CF80814C
:1006F00085FFEDCFCE010E94F202E9CFDF91CF91CD
:10070000089580E090E0892B29F00E94E802811191
:100710000E94000080E090E0892B49F080E090E0AA
:10072000892B29F00E94000081110E94000080E0C6
:1007300090E0892B49F080E090E0892B29F00E941D
:10074000000081110E94000080E090E0892B49F0B8
:1007500080E090E0892B29F00E94000081110C9428
:10076000000008958150823108F05AC0E82FF0E06F
:100770008827E254FC4F8F4F0C94FA0FDE03E203FC
:10078000D003D603DA031004E503EB03EF03F5030C
:10079000F903FD030304070410040B0411041504FA
:1007A000809180008F7780938000089580918000F1
:1007B0008F7DF9CF80918000877FF5CF84B58F77CB
:1007C00084BD089584B58F7DFBCF8091B0008F7775
:1007D0008093B00008958091B0008F7DF9CF809113
:1007E00090008F77809390000895809190008F7D86
:1007F000F9CF80919000877FF5CF8091A0008F770F
:100800008093A00008958091A0008F7DF9CF809102
:10081000A000877FF5CF809120018F778093200102
:100820000895809120018F7DF9CF80912001877FED
:10083000F5CFCF93DF93282F30E0F901E65AFD4F33
:100840008491F901EC5EFD4FD491F901E253FE4F22
:10085000C491CC23A1F081110E94B203EC2FF0E0EF
:10086000EE0FFF1FEC54FE4FA591B491EC91ED23D8
:1008700081E090E009F480E0DF91CF91089580E07D
:1008800090E0FACF862F0C9419041F93CF93DF9337
:10089000282F30E0F901E65AFD4F8491F901EC5E12
:1008A000FD4FD491F901E253FE4FC491CC23A9F03E
:1008B000162F81110E94B203EC2FF0E0EE0FFF1F04
:1008C000E656FE4FA591B4918FB7F894EC911111B3
:1008D00008C0D095DE23DC938FBFDF91CF911F91AD
:1008E0000895DE2BF8CF862F642F0C944504CF9308
:1008F000DF9390E0FC01EC5EFD4F249182539E4F0C
:10090000FC0184918823C9F090E0880F991FFC01B5
:10091000E058FE4FA591B491FC01E656FE4FC591FB
:10092000D49161110DC09FB7F8948C9120958223CA
:100930008C938881282328839FBFDF91CF910895CE
:10094000623051F49FB7F8943C91822F80958323B5
:100950008C93E8812E2BEFCF8FB7F894EC912E2B50
:100960002C938FBFEACF862F642F0C9477046F925D
:100970007F928F929F92AF92BF92CF92DF92EF922F
:10098000FF920F931F93CF93DF9381E080935B05DA
:100990008FB7F8944091A5035091A6036091A703E7
:1009A0007091A8038FBF80914B0590914C05A09149
:1009B0004D05B0914E05481B590B6A0B7B0B80917E
:1009C000570590915805B0E0A0E084179507A60759
:1009D000B70708F01DC1C0E080915505C81760F445
:1009E000E0915105F0915205EC0FF11D62E080811C
:1009F0000E947704CF5FF0CF712C812C912C540191
:100A0000839480915605781608F05FC0072D10E09A
:100A1000E0915305F0915405E00FF11F61E08081F2
:100A20000E947704E0915305F0915405E00FF11F07
:100A300060E080810E944504D501C401072C04C0F8
:100A4000880F991FAA1FBB1F0A94D2F76C017C0163
:100A5000E094F094612C809155056816F8F4C62D49
:100A6000D0E0E0915105F0915205EC0FFD1F80811F
:100A70000E9419042496CC0FDD1FC151DB4F892B36
:100A800041F4888199818C299D2999838883639475
:100A9000E2CF888199818E219F21F7CFE091530584
:100AA000F0915405E00FF11F61E080810E94450440
:100AB0008091530590915405080F191F60E0F801CB
:100AC00080810E94770473949CCFCFEED4E0FE0126
:100AD0008FEF9FEF278D30A1232B21F4148E968F5B
:100AE000858F11A2369625E0EB32F20799F7F12CAB
:100AF00096E0D92E80915505F81608F050C0E12CEB
:100B00000F2D10E0000F111F09501B4F20915605AB
:100B1000E21608F042C0F801608171810E2C02C01B
:100B2000769567950A94E2F7F29E900111242E0DB6
:100B3000311DEFEEF4E080E0458D568D241735072A
:100B400009F46AC08F5F36968A30B1F760FF23C020
:100B5000EFEEF4E090E080E0448D411117C0E091A9
:100B60004F05F0915005E20FF31F4081D89EF00130
:100B7000D99EF00D1124E151FB4F448F368F258F04
:100B800010A2178E61E00E940C0205C001963696F5
:100B90008A30910509F7E394B9CFF394ABCF80E0A5
:100BA00099A19111892F2696F5E0CB32DF07C1F785
:100BB0009FB7F8944091A5035091A6036091A703B5
:100BC0007091A8039FBF40934B0550934C056093D1
:100BD0004D0570934E058823D9F080911005882328
:100BE000B9F080910E0590910F05019789F48091DD
:100BF0000B05DF91CF911F910F91FF90EF90DF9048
:100C0000CF90BF90AF909F908F907F906F900895FE
:100C100010925B0580E0EDCF6170B5CF3FB7F894DF
:100C20008091910390919203A0919303B0919403CA
:100C300026B5A89B05C02F3F19F00196A11DB11D37
:100C40003FBFBA2FA92F982F8827BC01CD01620F73
:100C5000711D811D911D42E0660F771F881F991F2E
:100C60004A95D1F708958F929F92AF92BF92CF92FB
:100C7000DF92EF92FF924B015C010E940E066B0126
:100C80007C010E940E066C197D098E099F09683E41
:100C9000734081059105A8F321E0821A9108A1080B
:100CA000B10888EEC80E83E0D81EE11CF11C811447
:100CB0009104A104B10429F7FF90EF90DF90CF9049
:100CC000BF90AF909F908F900895AF92BF92CF92B8
:100CD000DF92EF92FF920F931F93CF93DF936B01FD
:100CE0007A01EC01C457DC4F28813CE0389F800139
:100CF000399F100D1124A090E204B12C27FF1FC0D2
:100D0000FB011182108288818F5F8883888198011E
:100D1000280F311D87FD3A95F6012A153B051CF475
:100D200088818C30C4F180819181049680349C4903
:100D300008F473C0F60180819181049670C08881A7
:100D40009801280F311D87FD3A952A153B05DCF6E1
:100D50008881A801480F511D87FD5A95FA01EE0FB1
:100D6000FF1FE40FF51FEE5AFB4F808186FFCBCFAC
:100D70008881F801E80FF11D87FDFA95CF01EE0F8C
:100D8000FF1FE80FF91FEE5AFB4F808160E08F7361
:100D90000E944504B8CF808191812881A801420F2B
:100DA000511D27FD5A959A01FA01EE0FFF1FE20F20
:100DB000F31FEE5AFB4F21813281820F931FF701FF
:100DC0009183808388819801280F311D87FD3A9592
:100DD000F901EE0FFF1FE20FF31FEE5AFB4F808168
:100DE00086FF22C08881080F111D87FD1A95F80122
:100DF000EE0FFF1FE00FF11FEE5AFB4F808161E005
:100E00008F73DF91CF911F910F91FF90EF90DF9043
:100E1000CF90BF90AF900C94450480E49CE9F7011B
:100E2000918380838FEF8883DF91CF911F910F9102
:100E3000FF90EF90DF90CF90BF90AF90089508950E
:100E400020911B03260F3327331F21323105ECF489
:100E500020916403FC0190E080E0243069F082E09E
:100E60000895A0911B032191AC0145505D4FA40F43
:100E7000B52FB11D2C930196861798F380911B0313
:100E8000680F60931B0380E0089581E0089510923D
:100E9000640381E08093630310923E0361E084E188
:100EA0000E94450461E085E10E944504E9EBF0E021
:100EB00080818E7F808380818D7F808388E4809392
:100EC000B80085E48093BC000895CF93DF9391E050
:100ED0009093FA028823B9F0C091B800D091BA007B
:100EE0008091BC008A7B8093BC0060E084E10E941A
:100EF000450460E085E10E9445040E944707D093C5
:100F0000BA00C093B800DF91CF9108950895E091A1
:100F10009C0380919B03E81730F4F0E0E652FD4F0C
:100F2000808190E008958FEF9FEF089590919C034A
:100F300080919B032FEF3FEF981748F4E92FF0E0E3
:100F4000E652FD4F208130E09F5F90939C03C901E2
:100F5000089580919B0390919C03891B990B0895A0
:100F6000CF92DF92EF92FF920F931F93CF93DF9375
:100F70007C01CB018A0120916A03222389F0EB01D5
:100F80006B01C40ED51ECC15DD0569F06991D70142
:100F9000ED91FC910190F081E02DC7011995F3CFFF
:100FA000642F0E942007C801DF91CF911F910F91FC
:100FB000FF90EF90DF90CF900895CF93DF931F9233
:100FC000CDB7DEB7698320916A032223F9F020911F
:100FD0009903203258F021E030E0FC013383228372
:100FE00090E080E00F90DF91CF91089580919A0377
:100FF000E82FF0E0E559FC4F998190838F5F809353
:101000009A038093990381E090E0ECCF61E0CE01F8
:1010100001960E942007F7CFCF92DF92EF92FF92C6
:101020000F931F93CF93DF93FC01C48121E02093A2
:101030006A03C0938B0310929A03109299038385DD
:10104000682B86E494E00E94DD07D0919903D132A9
:1010500008F092C00E940E066B017C01809164032F
:10106000811165C082E08093640381E08093630313
:101070008FEF8093620310926103D0936003ABE61D
:10108000B3E0E0E4F3E080E0D81385C010923F03C2
:1010900080913F03CC0FC82BC0933F0380913E0348
:1010A000813009F07CC010923E030E940E066B0155
:1010B0007C0180913F038093BB00809166039091F7
:1010C0006703A0916803B0916903892B8A2B8B2B4E
:1010D00099F00E940E06009166031091670320911B
:1010E0006803309169036C197D098E099F09061701
:1010F000170728073907E0F18091BC0083FDD9CF9D
:1011000085EC8093BC000E940E066B017C018091EF
:101110006403823009F445C0809162038F3F61F11E
:1011200080916203803241F18091620325C08091F9
:10113000660390916703A0916803B0916903892BBE
:101140008A2B8B2B09F48ACF0E940E06009166032E
:101150001091670320916803309169036C197D0930
:101160008E099F09061717072807390708F076CF59
:10117000809165030E94650710929A03109299036B
:1011800010926A03DF91CF911F910F91FF90EF9022
:10119000DF90CF9008959D9191938F5F75CF85EEED
:1011A000B0CF8091660390916703A0916803B091DE
:1011B0006903892B8A2B8B2B09F4A9CF0E940E0679
:1011C00000916603109167032091680330916903D1
:1011D0006C197D098E099F0906171707280739071B
:1011E00008F095CFC5CF90E080E00895FC01019014
:1011F0000020E9F73197AF01481B590BBC0183EE82
:1012000094E00C947E020F931F93CF938C01C62F12
:101210000E940C086C2F6460C8010E940C086C2F9F
:101220006B7FC8010E940C0883EC90E00197F1F7F6
:10123000CF911F910F9108950F931F93CF93DF9339
:101240008C01D62FC42F607F642B0E94030980E19C
:10125000D89FB00111246C2BC801DF91CF911F9151
:101260000F910C940309CF93DF9300D000D01F920D
:101270001F92CDB7DEB798E0EDE1F2E0DE01119606
:1012800001900D929A95E1F79091EB04961708F46E
:101290006FEF262F30E0220F331F41E050E04C0F5C
:1012A0005D1F240F351FF9016081680F606840E001
:1012B00083EE94E028960FB6F894DEBF0FBECDBF44
:1012C000DF91CF910C941C0960E080E00E9433090B
:1012D0008FE592E00E94F60860E089E00C94330903
:1012E00041E00E941C0981E090E0089585ED809323
:1012F000BC008091660390916703A0916803B09150
:1013000069030796A11DB11D23E0B695A795979592
:1013100087952A95D1F72091BC0024FD03C0109237
:1013200064030895409166035091670360916803D8
:1013300070916903452B462B472B69F30097A10554
:10134000B10541F025E32A95F1F700000197A109C5
:10135000B109E1CF809165030C9465071F920F924C
:101360000FB60F9211240BB60F922F933F934F930A
:101370005F936F937F938F939F93AF93BF93EF93FD
:10138000FF9389EA93E00E94F202FF91EF91BF91EF
:10139000AF919F918F917F916F915F914F913F910D
:1013A0002F910F900BBE0F900FBE0F901F901895AE
:1013B0001F920F920FB60F9211240BB60F922F931C
:1013C0008F939F93EF93FF93E091B903F091BA034A
:1013D0008081E091BF03F091C00382FD1DC0908128
:1013E0008091C2038F5F8F732091C303821741F0F6
:1013F000E091C203F0E0E755FC4F958F8093C20364
:10140000FF91EF919F918F912F910F900BBE0F90B5
:101410000FBE0F901F9018958081F2CF1F920F92F0
:101420000FB60F9211242F933F938F939F93AF93F7
:10143000BF938091A5039091A603A091A703B091BB
:10144000A8033091900323E0230F2D3758F5019620
:10145000A11DB11D209390038093A5039093A60333
:10146000A093A703B093A803809191039091920356
:10147000A0919303B09194030196A11DB11D809397
:10148000910390939203A0939303B0939403BF911D
:10149000AF919F918F913F912F910F900FBE0F9021
:1014A0001F90189526E8230F0296A11DB11DD2CFDB
:1014B0001F920F920FB60F9211240BB60F922F931B
:1014C0003F934F935F936F937F938F939F93AF93CC
:1014D000BF93EF93FF9348E251E064E271E090E044
:1014E00080E00E946506FF91EF91BF91AF919F91BF
:1014F0008F917F916F915F914F913F912F910F90BD
:101500000BBE0F900FBE0F901F9018951F920F9259
:101510000FB60F9211240BB60F922F933F934F9358
:101520005F936F937F938F939F93AF93BF93EF934B
:10153000FF9348EA50E064EA70E083E090E00E94A4
:101540006506FF91EF91BF91AF919F918F917F9130
:101550006F915F914F913F912F910F900BBE0F9024
:101560000FBE0F901F9018951F920F920FB60F92FB
:1015700011240BB60F922F933F934F935F936F936A
:101580007F938F939F93AF93BF93EF93FF9348E91C
:1015900050E064E970E082E090E00E946506FF910F
:1015A000EF91BF91AF919F918F917F916F915F91DB
:1015B0004F913F912F910F900BBE0F900FBE0F9048
:1015C0001F9018951F920F920FB60F9211240BB611
:1015D0000F922F933F934F935F936F937F938F93CC
:1015E0009F93AF93BF93EF93FF9348E850E064E875
:1015F00070E081E090E00E946506FF91EF91BF915D
:10160000AF919F918F917F916F915F914F913F919A
:101610002F910F900BBE0F900FBE0F901F9018953B
:101620001F920F920FB60F9211240BB60F922F93A9
:101630003F934F935F936F937F938F939F93AF935A
:10164000BF93EF93FF938091B900887F803609F4B0
:101650004DC008F040C0883209F4A9C028F5803197
:1016600009F49DC0C8F4882309F4FBC0883009F44C
:1016700096C0FF91EF91BF91AF919F918F917F9114
:101680006F915F914F913F912F910F900BBE0F90F3
:101690000FBE0F901F901895883109F488C08032D2
:1016A00041F78093620314C0803409F49DC040F474
:1016B0008033B9F38833E9F68093620385ECB0C0D8
:1016C000803509F485C0883509F496C0883489F6D8
:1016D0000E947609CECF883909F48CC038F5883756
:1016E00029F050F4883611F0803719F683E08093A2
:1016F000640310923D0357C0883809F47BC08039D9
:1017000019F0803809F0B5CF80913D03803208F0A0
:1017100071C0E0913D0381E08E0F80933D03809185
:10172000BB00F0E0E35EFC4F80833DC0803B39F0BE
:10173000E0F4803A09F479C0883A09F09ACF84E05D
:101740008093640310921C0310921B03E091970393
:10175000F0919803199580911B0381110FC081E0CE
:1017600080931B031092FB0209C0803C09F4A6CFB2
:10177000883C09F4A3CF883B09F07BCFE0911C03A0
:1017800081E08E0F80931C03F0E0E550FD4F8081D7
:101790008093BB0090911C0380911B0329C0809112
:1017A0003F038093BB0085EC8093BC0062CF909197
:1017B000610380916003981758F5E091610381E01F
:1017C0008E0F80936103F0E0E05CFC4F8081E9CFF5
:1017D000E091610381E08E0F809361038091BB00F3
:1017E000F0E0E05CFC4F80839091610380916003A6
:1017F0009817C8F285E8D8CFE091610381E08E0F99
:10180000809361038091BB00F0E0E05CFC4F80833B
:101810008091630381115CCF81E080933E0384EA71
:101820008093BC001092640324CF85EC8093BC00AD
:101830001092640380913D03803230F4E0913D03C7
:10184000F0E0E35EFC4F108260913D0370E0E091B8
:101850009503F09196038DE193E0199510923D0365
:1018600008CF1092620334CF1092AC031092AB03F6
:1018700088EE93E0A0E0B0E08093AD039093AE03D8
:10188000A093AF03B093B00329E232E03093AA03F0
:101890002093A90325EC30E03093B6032093B503E1
:1018A00024EC30E03093B8032093B70320EC30E011
:1018B0003093BA032093B90321EC30E03093BC039A
:1018C0002093BB0322EC30E03093BE032093BD0392
:1018D00026EC30E03093C0032093BF031092C20384
:1018E0001092C3031092C4031092C50310924904CE
:1018F0001092480480934A0490934B04A0934C04A4
:10190000B0934D048BE392E0909347048093460498
:101910008091E204803308F072C091E0980F9093B8
:10192000E20480935E0590E0FC01EE0FFF1FE80FDC
:10193000F91FEE5AFB4F88EB9BE092838183109254
:10194000F1041092F5041092F4041092F60489E563
:1019500092E09093F0048093EF04EBE0F5E01082C6
:10196000148213821582369685E0E734F807B9F7BA
:1019700089E092E0909352058093510585E092E0D2
:10198000909354058093530584E08093550580938C
:1019900056058DE092E09093500580934F058AE0C4
:1019A00090E0909358058093570584EF91E09093D1
:1019B0005A058093590510925D0510925C051092AE
:1019C0004B0510924C0510924D0510924E05109249
:1019D0005B051092E6041092E5048DE492E090938A
:1019E000E4048093E30480E28093E70480E1809341
:1019F000EC0482E08093ED041092EE0408958FEFE2
:101A000080935E059CCF789484B5826084BD84B554
:101A1000816084BD85B5826085BD85B5816085BDE9
:101A200080916E00816080936E00109281008091A1
:101A30008100826080938100809181008160809329
:101A40008100809180008160809380008091B1004E
:101A500084608093B1008091B00081608093B00079
:101A600080919100826080939100809191008160CB
:101A7000809391008091900081608093900080918C
:101A8000A10082608093A1008091A1008160809379
:101A9000A1008091A00081608093A000809121012D
:101AA00082608093210180912101816080932101D6
:101AB0008091200181608093200180917A00846070
:101AC00080937A0080917A00826080937A0080917E
:101AD0007A00816080937A0080917A008068809398
:101AE0007A001092C100E091B903F091BA0382E04C
:101AF0008083E091B503F091B6031082E091B703C3
:101B0000F091B8038FEC80831092C103E091BD0384
:101B1000F091BE0386E08083E091BB03F091BC03AB
:101B2000808180618083E091BB03F091BC03808160
:101B300088608083E091BB03F091BC038081806862
:101B40008083E091BB03F091BC0380818F7D808313
:101B500060E089E00E94770410929C0310929B033E
:101B600010929A03109299030E9447078CE792E023
:101B700090939803809397038DE792E09093960358
:101B8000809395031092E8048091ED04823018F060
:101B900098E09093E8048093EB0462E370E080E0C7
:101BA00090E00E9433066091EE0483EE94E00E9480
:101BB0000C0868EE73E080E090E00E94330660E37A
:101BC00083EE94E00E940309CBE4D6E4CE010197B2
:101BD000F1F760E383EE94E00E9403092197F1F7A7
:101BE00060E383EE94E00E94030983E592E00197AD
:101BF000F1F760E283EE94E00E9403096091E8044B
:101C0000606240E083EE94E00E941C0984E08093CF
:101C1000E90440E06CE083EE94E00E941C0940E09F
:101C200061E083EE94E00E941C09CBE3DFE1CE018A
:101C30000197F1F782E08093EA0440E066E083EEEA
:101C400094E00E941C0940E062E083EE94E00E9470
:101C50001C092197F1F788E08093EE0460E083EEA1
:101C600094E00E940C0880915E05803308F054C017
:101C700061E08AE00E94770480915E05282F30E0C1
:101C8000F901EE0FFF1FE20FF31FEE5AFB4F908199
:101C9000907C9A60908393EE90935F059AEF909377
:101CA00060052CE0622F0E94EE0F829FB00111248C
:101CB00030E020E0AB01420F531FFA01EE0FFF1F8F
:101CC000E40FF51FEE5AFB4F908196FD17C02F5F72
:101CD0003F4F2C30310571F7813009F0A2C01092CE
:101CE000800082E080938100109285001092840031
:101CF000B19A80916F00826080936F00E0915E05E1
:101D00008E2F90E0FC01EE0FFF1FE80FF91FEE5A37
:101D1000FB4F80818064808386E990E00E9484018B
:101D20000E946409C1E0D0E00BE31FE10E94B70408
:101D3000882381F09091A403E92FF0E0E156FC4F55
:101D400080839F5F9093A40341E0682F83EE94E02B
:101D50000E941C098091A403843021F560E072E0A8
:101D60008FE993E00E940210892B09F095C08091C1
:101D70009D0390919E03892B09F07FC0D0939E0311
:101D8000C0939D0361E080E00E94330981E792E007
:101D90000E94F6088EE190E00E9484010E9464098E
:101DA0001092A40380919D0390919E03019709F0E6
:101DB000AFC08BE00E941904892B09F090C040E06D
:101DC00061E083EE94E00E941C09C8010197F1F7DD
:101DD00060E080E00E9433098CEA92E00E94F608FD
:101DE0001092A4038091A403843008F05EC00E9486
:101DF000B7048823B9F39091A403292F30E0F901A7
:101E0000E050FE4F808321563C4FF90180839F5F55
:101E10009093A40341E0682F83EE94E00E941C0994
:101E2000E1CF823061F41092900080939100109283
:101E300095001092940088BB809371005FCF83302F
:101E400069F41092A00082E08093A1001092A50096
:101E50001092A40089BB8093720050CF81114ECFA5
:101E60001092200182E080932101109225011092AE
:101E700024018ABB8093730041CF10929E0310927D
:101E80009D0361E080E00E94330985E892E00E94B2
:101E9000F60886E990E080CF61E080E00E94330997
:101EA0008BE992E00E94F60879CF10929E0310927F
:101EB0009D0361E080E00E94330989EB92E00E947B
:101EC000F60864EF71E080E090E00E9433060E9423
:101ED000640980919D0390919E030197C9F489E064
:101EE0000E941904892BA1F410929E0310929D0365
:101EF00061E080E00E94330988EC92E00E94F608DD
:101F000060E080E00E94330980ED92E00E94F608D4
:101F10000E9481030BCF052E97FB1EF400940E94B4
:101F2000A20F57FD07D00E94BD0F07FC03D04EF44F
:101F30000C94A20F50954095309521953F4F4F4FEF
:101F40005F4F089590958095709561957F4F8F4F65
:101F50009F4F08950E94DF0FA59F900DB49F900D95
:101F6000A49F800D911D11240895B7FF0C94AA0F12
:101F70000E94AA0F821B930B0895A1E21A2EAA1B9E
:101F8000BB1BFD010DC0AA1FBB1FEE1FFF1FA21729
:101F9000B307E407F50720F0A21BB30BE40BF50B26
:101FA000661F771F881F991F1A9469F760957095AF
:101FB000809590959B01AC01BD01CF010895A29F32
:101FC000B001B39FC001A39F700D811D1124911D0D
:101FD000B29F700D811D1124911D0895991B79E008
:101FE00004C0991F961708F0961B881F7A95C9F7A9
:101FF00080950895EE0FFF1F881F8BBF0790F69105
:10200000E02D1994FB01DC018D91019080190110E4
:0A201000D9F3990B0895F894FFCF5F
:10201A0030303030001A1B1C1D1617181931323394
:10202A004134353642373839432A30234400004098
:10203A0000140054000000000014037E02AB026189
:10204A0003DC02BA02CE0200000000DD07B007F38B
:10205A00088607A907960787070000000070097E0F
:10206A0002F3081F0700000000B30473044204438C
:10207A004C415645203A2020202020202020202094
:10208A00004142494552544F202020202020202040
:10209A0020202020004345525241444F2020202036
:1020AA002020202020202020202000434C4156457B
:1020BA0020494E434F525245435441004E554556CE
:1020CA004120434C4156453A00434C415645204332
:1020DA00414D4249414441004345525241444F0017
:0A20EA00434C4156453A2020000007
:00000001FF
